{"contracts/TransactionMonitor.sol":{"TransactionMonitor":{"abi":[{"inputs":[],"stateMutability":"nonpayable","type":"constructor"},{"inputs":[{"internalType":"address","name":"owner","type":"address"}],"name":"OwnableInvalidOwner","type":"error"},{"inputs":[{"internalType":"address","name":"account","type":"address"}],"name":"OwnableUnauthorizedAccount","type":"error"},{"inputs":[],"name":"ReentrancyGuardReentrantCall","type":"error"},{"anonymous":false,"inputs":[{"indexed":true,"internalType":"address","name":"previousOwner","type":"address"},{"indexed":true,"internalType":"address","name":"newOwner","type":"address"}],"name":"OwnershipTransferred","type":"event"},{"anonymous":false,"inputs":[{"indexed":true,"internalType":"address","name":"wallet","type":"address"},{"indexed":false,"internalType":"uint8","name":"alertType","type":"uint8"},{"indexed":false,"internalType":"uint256","name":"severity","type":"uint256"},{"indexed":false,"internalType":"string","name":"description","type":"string"},{"indexed":false,"internalType":"uint256","name":"timestamp","type":"uint256"}],"name":"RiskAlert","type":"event"},{"anonymous":false,"inputs":[{"indexed":true,"internalType":"bytes32","name":"txHash","type":"bytes32"},{"indexed":true,"internalType":"address","name":"wallet","type":"address"},{"indexed":false,"internalType":"uint256","name":"riskScore","type":"uint256"},{"indexed":false,"internalType":"uint8","name":"riskCategory","type":"uint8"},{"indexed":false,"internalType":"uint256","name":"timestamp","type":"uint256"}],"name":"TransactionAnalyzed","type":"event"},{"anonymous":false,"inputs":[{"indexed":true,"internalType":"address","name":"wallet","type":"address"},{"indexed":false,"internalType":"uint256","name":"riskScore","type":"uint256"},{"indexed":false,"internalType":"uint256","name":"totalTransactions","type":"uint256"},{"indexed":false,"internalType":"uint256","name":"totalVolume","type":"uint256"}],"name":"WalletProfileUpdated","type":"event"},{"inputs":[],"name":"FREQUENCY_SPIKE_THRESHOLD","outputs":[{"internalType":"uint256","name":"","type":"uint256"}],"stateMutability":"view","type":"function"},{"inputs":[],"name":"HIGH_RISK_THRESHOLD","outputs":[{"internalType":"uint256","name":"","type":"uint256"}],"stateMutability":"view","type":"function"},{"inputs":[],"name":"MEDIUM_RISK_THRESHOLD","outputs":[{"internalType":"uint256","name":"","type":"uint256"}],"stateMutability":"view","type":"function"},{"inputs":[],"name":"VOLUME_ANOMALY_THRESHOLD","outputs":[{"internalType":"uint256","name":"","type":"uint256"}],"stateMutability":"view","type":"function"},{"inputs":[{"internalType":"address","name":"_from","type":"address"},{"internalType":"address","name":"_to","type":"address"},{"internalType":"uint256","name":"_value","type":"uint256"},{"internalType":"bytes32","name":"_txHash","type":"bytes32"}],"name":"analyzeTransaction","outputs":[],"stateMutability":"nonpayable","type":"function"},{"inputs":[],"name":"getAnalyticsSummary","outputs":[{"internalType":"uint256","name":"totalAnalyzed","type":"uint256"},{"internalType":"uint256","name":"criticalRisk","type":"uint256"},{"internalType":"uint256","name":"highRisk","type":"uint256"},{"internalType":"uint256","name":"mediumRisk","type":"uint256"},{"internalType":"uint256","name":"lowRisk","type":"uint256"}],"stateMutability":"view","type":"function"},{"inputs":[{"internalType":"bytes32","name":"_txHash","type":"bytes32"}],"name":"getTransactionDetails","outputs":[{"components":[{"internalType":"address","name":"from","type":"address"},{"internalType":"address","name":"to","type":"address"},{"internalType":"uint256","name":"value","type":"uint256"},{"internalType":"uint256","name":"timestamp","type":"uint256"},{"internalType":"bytes32","name":"txHash","type":"bytes32"},{"internalType":"uint256","name":"riskScore","type":"uint256"},{"internalType":"bool","name":"flagged","type":"bool"},{"internalType":"uint8","name":"category","type":"uint8"}],"internalType":"struct TransactionMonitor.TransactionData","name":"","type":"tuple"}],"stateMutability":"view","type":"function"},{"inputs":[{"internalType":"address","name":"_wallet","type":"address"}],"name":"getWalletProfile","outputs":[{"components":[{"internalType":"uint256","name":"totalTransactions","type":"uint256"},{"internalType":"uint256","name":"totalVolume","type":"uint256"},{"internalType":"uint256","name":"riskScore","type":"uint256"},{"internalType":"uint256","name":"lastActivity","type":"uint256"},{"internalType":"bool","name":"isHighRisk","type":"bool"},{"internalType":"uint8[]","name":"categories","type":"uint8[]"}],"internalType":"struct TransactionMonitor.WalletProfile","name":"","type":"tuple"}],"stateMutability":"view","type":"function"},{"inputs":[{"internalType":"address","name":"_wallet","type":"address"}],"name":"getWalletTransactions","outputs":[{"internalType":"bytes32[]","name":"","type":"bytes32[]"}],"stateMutability":"view","type":"function"},{"inputs":[],"name":"owner","outputs":[{"internalType":"address","name":"","type":"address"}],"stateMutability":"view","type":"function"},{"inputs":[],"name":"renounceOwnership","outputs":[],"stateMutability":"nonpayable","type":"function"},{"inputs":[{"internalType":"uint8","name":"","type":"uint8"}],"name":"riskCategoryCounts","outputs":[{"internalType":"uint256","name":"","type":"uint256"}],"stateMutability":"view","type":"function"},{"inputs":[],"name":"totalTransactionsAnalyzed","outputs":[{"internalType":"uint256","name":"","type":"uint256"}],"stateMutability":"view","type":"function"},{"inputs":[{"internalType":"bytes32","name":"","type":"bytes32"}],"name":"transactions","outputs":[{"internalType":"address","name":"from","type":"address"},{"internalType":"address","name":"to","type":"address"},{"internalType":"uint256","name":"value","type":"uint256"},{"internalType":"uint256","name":"timestamp","type":"uint256"},{"internalType":"bytes32","name":"txHash","type":"bytes32"},{"internalType":"uint256","name":"riskScore","type":"uint256"},{"internalType":"bool","name":"flagged","type":"bool"},{"internalType":"uint8","name":"category","type":"uint8"}],"stateMutability":"view","type":"function"},{"inputs":[{"internalType":"address","name":"newOwner","type":"address"}],"name":"transferOwnership","outputs":[],"stateMutability":"nonpayable","type":"function"},{"inputs":[{"internalType":"address","name":"","type":"address"}],"name":"walletProfiles","outputs":[{"internalType":"uint256","name":"totalTransactions","type":"uint256"},{"internalType":"uint256","name":"totalVolume","type":"uint256"},{"internalType":"uint256","name":"riskScore","type":"uint256"},{"internalType":"uint256","name":"lastActivity","type":"uint256"},{"internalType":"bool","name":"isHighRisk","type":"bool"}],"stateMutability":"view","type":"function"},{"inputs":[{"internalType":"address","name":"","type":"address"},{"internalType":"uint256","name":"","type":"uint256"}],"name":"walletTransactions","outputs":[{"internalType":"bytes32","name":"","type":"bytes32"}],"stateMutability":"view","type":"function"}],"evm":{"bytecode":{"linkReferences":{},"object":"608060405234801561001057600080fd5b50338061003757604051631e4fbdf760e01b81526000600482015260240160405180910390fd5b6100408161004a565b506001805561009a565b600080546001600160a01b038381166001600160a01b0319831681178455604051919092169283917f8be0079c531659141344cd1fd0a4f28419497f9722a3daafe3b4186f6b6457e09190a35050565b6113ab806100a96000396000f3fe608060405234801561001057600080fd5b506004361061010b5760003560e01c8063715018a6116100a25780639dcbd55c116100715780639dcbd55c146104ee5780639ed990cf146104f65780639f8e6164146104fe578063bbcf9fee14610511578063f2fde38b1461051957600080fd5b8063715018a6146103a35780638da5cb5b146103ab5780638db99701146103c65780638e71fc031461048357600080fd5b80633c123e28116100de5780633c123e2814610188578063515a39b6146101a8578063642f2eaf146102eb5780636d5cdd9d1461039a57600080fd5b80630ae7278a14610110578063145045e6146101335780631a217b2a146101535780633b0877d214610173575b600080fd5b610120683635c9adc5dea0000081565b6040519081526020015b60405180910390f35b610146610141366004611086565b61052c565b60405161012a91906110a8565b6101206101613660046110ec565b60066020526000908152604090205481565b61018661018136600461110f565b610598565b005b61019b610196366004611086565b610992565b60405161012a9190611151565b6102796101b63660046111db565b6040805161010081018252600080825260208201819052918101829052606081018290526080810182905260a0810182905260c0810182905260e0810191909152506000908152600260208181526040928390208351610100808201865282546001600160a01b0390811683526001840154169382019390935292810154938301939093526003830154606083015260048301546080830152600583015460a083015260069092015460ff808216151560c084015292900490911660e082015290565b60405161012a919060006101008201905060018060a01b038084511683528060208501511660208401525060408301516040830152606083015160608301526080830151608083015260a083015160a083015260c0830151151560c083015260ff60e08401511660e083015292915050565b61034f6102f93660046111db565b600260208190526000918252604090912080546001820154928201546003830154600484015460058501546006909501546001600160a01b03948516969094169492939192909160ff8082169161010090041688565b604080516001600160a01b03998a168152989097166020890152958701949094526060860192909252608085015260a0840152151560c083015260ff1660e08201526101000161012a565b61012060055481565b610186610a9a565b6000546040516001600160a01b03909116815260200161012a565b60055460066020527f3e5fec24aa4dc4e5aee2e025e51e1392c72a2500577559fae9665c6d52bd6a31547f8819ef417987f8ae7a81f42cdfb18815282fe989326fbff903d13cf0e03ace29547f75f96ab15d697e93042dc45b5c896c4b27e89bb6eaf39475c5c371cb2513f7d25460046000527fc5069e24aaadb2addc3e52e868fcf3f4f8acf5a87e24300992fd4540c2a87eed54604080519586526020860194909452928401919091526060830152608082015260a00161012a565b6104c4610491366004611086565b60036020819052600091825260409091208054600182015460028301549383015460049093015491939092909160ff1685565b6040805195865260208601949094529284019190915260608301521515608082015260a00161012a565b610120604681565b610120600a81565b61012061050c3660046111f4565b610aae565b610120602881565b610186610527366004611086565b610adf565b6001600160a01b03811660009081526004602090815260409182902080548351818402810184019094528084526060939283018282801561058c57602002820191906000526020600020905b815481526020019060010190808311610578575b50505050509050919050565b6105a0610b1d565b836001600160a01b0381166105ee5760405162461bcd60e51b815260206004820152600f60248201526e496e76616c6964206164647265737360881b60448201526064015b60405180910390fd5b836001600160a01b0381166106375760405162461bcd60e51b815260206004820152600f60248201526e496e76616c6964206164647265737360881b60448201526064016105e5565b826106845760405162461bcd60e51b815260206004820152601860248201527f496e76616c6964207472616e73616374696f6e2068617368000000000000000060448201526064016105e5565b600083815260026020526040902060030154156106e35760405162461bcd60e51b815260206004820152601c60248201527f5472616e73616374696f6e20616c726561647920616e616c797a65640000000060448201526064016105e5565b60006106f0878787610b47565b905060006106fe8287610d92565b905060006046831015905060006040518061010001604052808b6001600160a01b031681526020018a6001600160a01b0316815260200189815260200142815260200188815260200185815260200183151581526020018460ff168152509050806002600089815260200190815260200160002060008201518160000160006101000a8154816001600160a01b0302191690836001600160a01b0316021790555060208201518160010160006101000a8154816001600160a01b0302191690836001600160a01b0316021790555060408201518160020155606082015181600301556080820151816004015560a0820151816005015560c08201518160060160006101000a81548160ff02191690831515021790555060e08201518160060160016101000a81548160ff021916908360ff160217905550905050600460008b6001600160a01b03166001600160a01b03168152602001908152602001600020879080600181540180825580915050600190039060005260206000200160009091909190915055600460008a6001600160a01b03166001600160a01b031681526020019081526020016000208790806001815401808255809150506001900390600052602060002001600090919091909150556108db8a8986610e0e565b6108e6898986610e0e565b600580549060006108f683611234565b909155505060ff8316600090815260066020526040812080549161091983611234565b90915550506040805185815260ff85166020820152428183015290516001600160a01b038c169189917f244dc321a9d098f5614f705593c078b0cab92e61a1187b85ab8b9356d94d856f9181900360600190a3811561097d5761097d8a8486610f15565b50505050505061098c60018055565b50505050565b6109cd6040518060c0016040528060008152602001600081526020016000815260200160008152602001600015158152602001606081525090565b6001600160a01b038216600090815260036020818152604092839020835160c08101855281548152600182015481840152600282015481860152928101546060840152600481015460ff16151560808401526005810180548551818502810185019096528086529394919360a0860193830182828015610a8a57602002820191906000526020600020906000905b825461010083900a900460ff16815260206001928301818104948501949093039092029101808411610a5b5790505b5050505050815250509050919050565b610aa2610fed565b610aac600061101a565b565b60046020528160005260406000208181548110610aca57600080fd5b90600052602060002001600091509150505481565b610ae7610fed565b6001600160a01b038116610b1157604051631e4fbdf760e01b8152600060048201526024016105e5565b610b1a8161101a565b50565b600260015403610b4057604051633ee5aeb560e01b815260040160405180910390fd5b6002600155565b600080683635c9adc5dea00000831115610b6957610b66601e8261124d565b90505b6001600160a01b0385166000908152600360208181526040808420815160c08101835281548152600182015481850152600282015481840152938101546060850152600481015460ff1615156080850152600581018054835181860281018601909452808452919360a08601939290830182828015610c2557602002820191906000526020600020906000905b825461010083900a900460ff16815260206001928301818104948501949093039092029101808411610bf65790505b505050919092525050506001600160a01b0386166000908152600360208181526040808420815160c08101835281548152600182015481850152600282015481840152938101546060850152600481015460ff161515608085015260058101805483518186028101860190945280845296975094959394909360a0860193830182828015610cf057602002820191906000526020600020906000905b825461010083900a900460ff16815260206001928301818104948501949093039092029101808411610cc15790505b5050505050815250509050816080015115610d1357610d1060198461124d565b92505b806080015115610d2b57610d28600f8461124d565b92505b8151600003610d4257610d3f600a8461124d565b92505b815115610d76576000826060015142610d5b9190611260565b9050603c811015610d7457610d7160148561124d565b93505b505b60648311610d845782610d87565b60645b979650505050505050565b6000605083101580610dad575069010f0cf064dd5920000082115b15610dba57506001610e08565b603c83101580610dd25750683635c9adc5dea0000082115b15610ddf57506002610e08565b602883101580610df7575068056bc75e2d6310000082115b15610e0457506003610e08565b5060045b92915050565b6001600160a01b0383166000908152600360205260408120805490918290610e3583611234565b919050555082816001016000828254610e4e919061124d565b90915550504260038201558054600103610e6e5760028101829055610ea5565b600a610e7b836003611273565b6002830154610e8b906007611273565b610e95919061124d565b610e9f919061128a565b60028201555b600281015460048201805460ff1916604683101517905581546001830154604080519384526020840192909252908201526001600160a01b038516907f37d44544d97812d6fcb20ab0a2dd3e35fcd5b39e72c65eaca25696a9b7fe2d0e906060015b60405180910390a250505050565b60608260ff16600103610f4257604051806060016040528060328152602001611344603291399050610fae565b8260ff16600203610f6d57604051806060016040528060308152602001611314603091399050610fae565b8260ff16600303610fae575060408051808201909152601d81527f4d656469756d207269736b202d206d6f6e69746f7220636c6f73656c7900000060208201525b836001600160a01b03167f1ae197866f199690c7fb2f0aa4f5377601a4a503f57a90ffc6ae552efe2f186e84848442604051610f0794939291906112ac565b6000546001600160a01b03163314610aac5760405163118cdaa760e01b81523360048201526024016105e5565b600080546001600160a01b038381166001600160a01b0319831681178455604051919092169283917f8be0079c531659141344cd1fd0a4f28419497f9722a3daafe3b4186f6b6457e09190a35050565b80356001600160a01b038116811461108157600080fd5b919050565b60006020828403121561109857600080fd5b6110a18261106a565b9392505050565b6020808252825182820181905260009190848201906040850190845b818110156110e0578351835292840192918401916001016110c4565b50909695505050505050565b6000602082840312156110fe57600080fd5b813560ff811681146110a157600080fd5b6000806000806080858703121561112557600080fd5b61112e8561106a565b935061113c6020860161106a565b93969395505050506040820135916060013590565b6000602080835260e0830184518285015281850151604085015260408501516060850152606085015160808501526080850151151560a085015260a085015160c080860152818151808452610100870191508483019350600092505b808310156111d057835160ff1682529284019260019290920191908401906111ad565b509695505050505050565b6000602082840312156111ed57600080fd5b5035919050565b6000806040838503121561120757600080fd5b6112108361106a565b946020939093013593505050565b634e487b7160e01b600052601160045260246000fd5b6000600182016112465761124661121e565b5060010190565b80820180821115610e0857610e0861121e565b81810381811115610e0857610e0861121e565b8082028115828204841417610e0857610e0861121e565b6000826112a757634e487b7160e01b600052601260045260246000fd5b500490565b60ff8516815260006020858184015260806040840152845180608085015260005b818110156112e95786810183015185820160a0015282016112cd565b50600060a0828601015260a0601f19601f830116850101925050508260608301529594505050505056fe48696768207269736b207472616e73616374696f6e202d20756e757375616c206163746976697479207061747465726e437269746963616c207269736b206465746563746564202d20706f74656e7469616c20736563757269747920746872656174a26469706673582212208172913cb5c7cceb596fa9f17797cfb3bb321a7c17bc7d31e28860659943ef2964736f6c63430008140033","opcodes":"PUSH1 0x80 PUSH1 0x40 MSTORE CALLVALUE DUP1 ISZERO PUSH2 0x10 JUMPI PUSH1 0x0 DUP1 REVERT JUMPDEST POP CALLER DUP1 PUSH2 0x37 JUMPI PUSH1 0x40 MLOAD PUSH4 0x1E4FBDF7 PUSH1 0xE0 SHL DUP2 MSTORE PUSH1 0x0 PUSH1 0x4 DUP3 ADD MSTORE PUSH1 0x24 ADD PUSH1 0x40 MLOAD DUP1 SWAP2 SUB SWAP1 REVERT JUMPDEST PUSH2 0x40 DUP2 PUSH2 0x4A JUMP JUMPDEST POP PUSH1 0x1 DUP1 SSTORE PUSH2 0x9A JUMP JUMPDEST PUSH1 0x0 DUP1 SLOAD PUSH1 0x1 PUSH1 0x1 PUSH1 0xA0 SHL SUB DUP4 DUP2 AND PUSH1 0x1 PUSH1 0x1 PUSH1 0xA0 SHL SUB NOT DUP4 AND DUP2 OR DUP5 SSTORE PUSH1 0x40 MLOAD SWAP2 SWAP1 SWAP3 AND SWAP3 DUP4 SWAP2 PUSH32 0x8BE0079C531659141344CD1FD0A4F28419497F9722A3DAAFE3B4186F6B6457E0 SWAP2 SWAP1 LOG3 POP POP JUMP JUMPDEST PUSH2 0x13AB DUP1 PUSH2 0xA9 PUSH1 0x0 CODECOPY PUSH1 0x0 RETURN INVALID PUSH1 0x80 PUSH1 0x40 MSTORE CALLVALUE DUP1 ISZERO PUSH2 0x10 JUMPI PUSH1 0x0 DUP1 REVERT JUMPDEST POP PUSH1 0x4 CALLDATASIZE LT PUSH2 0x10B JUMPI PUSH1 0x0 CALLDATALOAD PUSH1 0xE0 SHR DUP1 PUSH4 0x715018A6 GT PUSH2 0xA2 JUMPI DUP1 PUSH4 0x9DCBD55C GT PUSH2 0x71 JUMPI DUP1 PUSH4 0x9DCBD55C EQ PUSH2 0x4EE JUMPI DUP1 PUSH4 0x9ED990CF EQ PUSH2 0x4F6 JUMPI DUP1 PUSH4 0x9F8E6164 EQ PUSH2 0x4FE JUMPI DUP1 PUSH4 0xBBCF9FEE EQ PUSH2 0x511 JUMPI DUP1 PUSH4 0xF2FDE38B EQ PUSH2 0x519 JUMPI PUSH1 0x0 DUP1 REVERT JUMPDEST DUP1 PUSH4 0x715018A6 EQ PUSH2 0x3A3 JUMPI DUP1 PUSH4 0x8DA5CB5B EQ PUSH2 0x3AB JUMPI DUP1 PUSH4 0x8DB99701 EQ PUSH2 0x3C6 JUMPI DUP1 PUSH4 0x8E71FC03 EQ PUSH2 0x483 JUMPI PUSH1 0x0 DUP1 REVERT JUMPDEST DUP1 PUSH4 0x3C123E28 GT PUSH2 0xDE JUMPI DUP1 PUSH4 0x3C123E28 EQ PUSH2 0x188 JUMPI DUP1 PUSH4 0x515A39B6 EQ PUSH2 0x1A8 JUMPI DUP1 PUSH4 0x642F2EAF EQ PUSH2 0x2EB JUMPI DUP1 PUSH4 0x6D5CDD9D EQ PUSH2 0x39A JUMPI PUSH1 0x0 DUP1 REVERT JUMPDEST DUP1 PUSH4 0xAE7278A EQ PUSH2 0x110 JUMPI DUP1 PUSH4 0x145045E6 EQ PUSH2 0x133 JUMPI DUP1 PUSH4 0x1A217B2A EQ PUSH2 0x153 JUMPI DUP1 PUSH4 0x3B0877D2 EQ PUSH2 0x173 JUMPI JUMPDEST PUSH1 0x0 DUP1 REVERT JUMPDEST PUSH2 0x120 PUSH9 0x3635C9ADC5DEA00000 DUP2 JUMP JUMPDEST PUSH1 0x40 MLOAD SWAP1 DUP2 MSTORE PUSH1 0x20 ADD JUMPDEST PUSH1 0x40 MLOAD DUP1 SWAP2 SUB SWAP1 RETURN JUMPDEST PUSH2 0x146 PUSH2 0x141 CALLDATASIZE PUSH1 0x4 PUSH2 0x1086 JUMP JUMPDEST PUSH2 0x52C JUMP JUMPDEST PUSH1 0x40 MLOAD PUSH2 0x12A SWAP2 SWAP1 PUSH2 0x10A8 JUMP JUMPDEST PUSH2 0x120 PUSH2 0x161 CALLDATASIZE PUSH1 0x4 PUSH2 0x10EC JUMP JUMPDEST PUSH1 0x6 PUSH1 0x20 MSTORE PUSH1 0x0 SWAP1 DUP2 MSTORE PUSH1 0x40 SWAP1 KECCAK256 SLOAD DUP2 JUMP JUMPDEST PUSH2 0x186 PUSH2 0x181 CALLDATASIZE PUSH1 0x4 PUSH2 0x110F JUMP JUMPDEST PUSH2 0x598 JUMP JUMPDEST STOP JUMPDEST PUSH2 0x19B PUSH2 0x196 CALLDATASIZE PUSH1 0x4 PUSH2 0x1086 JUMP JUMPDEST PUSH2 0x992 JUMP JUMPDEST PUSH1 0x40 MLOAD PUSH2 0x12A SWAP2 SWAP1 PUSH2 0x1151 JUMP JUMPDEST PUSH2 0x279 PUSH2 0x1B6 CALLDATASIZE PUSH1 0x4 PUSH2 0x11DB JUMP JUMPDEST PUSH1 0x40 DUP1 MLOAD PUSH2 0x100 DUP2 ADD DUP3 MSTORE PUSH1 0x0 DUP1 DUP3 MSTORE PUSH1 0x20 DUP3 ADD DUP2 SWAP1 MSTORE SWAP2 DUP2 ADD DUP3 SWAP1 MSTORE PUSH1 0x60 DUP2 ADD DUP3 SWAP1 MSTORE PUSH1 0x80 DUP2 ADD DUP3 SWAP1 MSTORE PUSH1 0xA0 DUP2 ADD DUP3 SWAP1 MSTORE PUSH1 0xC0 DUP2 ADD DUP3 SWAP1 MSTORE PUSH1 0xE0 DUP2 ADD SWAP2 SWAP1 SWAP2 MSTORE POP PUSH1 0x0 SWAP1 DUP2 MSTORE PUSH1 0x2 PUSH1 0x20 DUP2 DUP2 MSTORE PUSH1 0x40 SWAP3 DUP4 SWAP1 KECCAK256 DUP4 MLOAD PUSH2 0x100 DUP1 DUP3 ADD DUP7 MSTORE DUP3 SLOAD PUSH1 0x1 PUSH1 0x1 PUSH1 0xA0 SHL SUB SWAP1 DUP2 AND DUP4 MSTORE PUSH1 0x1 DUP5 ADD SLOAD AND SWAP4 DUP3 ADD SWAP4 SWAP1 SWAP4 MSTORE SWAP3 DUP2 ADD SLOAD SWAP4 DUP4 ADD SWAP4 SWAP1 SWAP4 MSTORE PUSH1 0x3 DUP4 ADD SLOAD PUSH1 0x60 DUP4 ADD MSTORE PUSH1 0x4 DUP4 ADD SLOAD PUSH1 0x80 DUP4 ADD MSTORE PUSH1 0x5 DUP4 ADD SLOAD PUSH1 0xA0 DUP4 ADD MSTORE PUSH1 0x6 SWAP1 SWAP3 ADD SLOAD PUSH1 0xFF DUP1 DUP3 AND ISZERO ISZERO PUSH1 0xC0 DUP5 ADD MSTORE SWAP3 SWAP1 DIV SWAP1 SWAP2 AND PUSH1 0xE0 DUP3 ADD MSTORE SWAP1 JUMP JUMPDEST PUSH1 0x40 MLOAD PUSH2 0x12A SWAP2 SWAP1 PUSH1 0x0 PUSH2 0x100 DUP3 ADD SWAP1 POP PUSH1 0x1 DUP1 PUSH1 0xA0 SHL SUB DUP1 DUP5 MLOAD AND DUP4 MSTORE DUP1 PUSH1 0x20 DUP6 ADD MLOAD AND PUSH1 0x20 DUP5 ADD MSTORE POP PUSH1 0x40 DUP4 ADD MLOAD PUSH1 0x40 DUP4 ADD MSTORE PUSH1 0x60 DUP4 ADD MLOAD PUSH1 0x60 DUP4 ADD MSTORE PUSH1 0x80 DUP4 ADD MLOAD PUSH1 0x80 DUP4 ADD MSTORE PUSH1 0xA0 DUP4 ADD MLOAD PUSH1 0xA0 DUP4 ADD MSTORE PUSH1 0xC0 DUP4 ADD MLOAD ISZERO ISZERO PUSH1 0xC0 DUP4 ADD MSTORE PUSH1 0xFF PUSH1 0xE0 DUP5 ADD MLOAD AND PUSH1 0xE0 DUP4 ADD MSTORE SWAP3 SWAP2 POP POP JUMP JUMPDEST PUSH2 0x34F PUSH2 0x2F9 CALLDATASIZE PUSH1 0x4 PUSH2 0x11DB JUMP JUMPDEST PUSH1 0x2 PUSH1 0x20 DUP2 SWAP1 MSTORE PUSH1 0x0 SWAP2 DUP3 MSTORE PUSH1 0x40 SWAP1 SWAP2 KECCAK256 DUP1 SLOAD PUSH1 0x1 DUP3 ADD SLOAD SWAP3 DUP3 ADD SLOAD PUSH1 0x3 DUP4 ADD SLOAD PUSH1 0x4 DUP5 ADD SLOAD PUSH1 0x5 DUP6 ADD SLOAD PUSH1 0x6 SWAP1 SWAP6 ADD SLOAD PUSH1 0x1 PUSH1 0x1 PUSH1 0xA0 SHL SUB SWAP5 DUP6 AND SWAP7 SWAP1 SWAP5 AND SWAP5 SWAP3 SWAP4 SWAP2 SWAP3 SWAP1 SWAP2 PUSH1 0xFF DUP1 DUP3 AND SWAP2 PUSH2 0x100 SWAP1 DIV AND DUP9 JUMP JUMPDEST PUSH1 0x40 DUP1 MLOAD PUSH1 0x1 PUSH1 0x1 PUSH1 0xA0 SHL SUB SWAP10 DUP11 AND DUP2 MSTORE SWAP9 SWAP1 SWAP8 AND PUSH1 0x20 DUP10 ADD MSTORE SWAP6 DUP8 ADD SWAP5 SWAP1 SWAP5 MSTORE PUSH1 0x60 DUP7 ADD SWAP3 SWAP1 SWAP3 MSTORE PUSH1 0x80 DUP6 ADD MSTORE PUSH1 0xA0 DUP5 ADD MSTORE ISZERO ISZERO PUSH1 0xC0 DUP4 ADD MSTORE PUSH1 0xFF AND PUSH1 0xE0 DUP3 ADD MSTORE PUSH2 0x100 ADD PUSH2 0x12A JUMP JUMPDEST PUSH2 0x120 PUSH1 0x5 SLOAD DUP2 JUMP JUMPDEST PUSH2 0x186 PUSH2 0xA9A JUMP JUMPDEST PUSH1 0x0 SLOAD PUSH1 0x40 MLOAD PUSH1 0x1 PUSH1 0x1 PUSH1 0xA0 SHL SUB SWAP1 SWAP2 AND DUP2 MSTORE PUSH1 0x20 ADD PUSH2 0x12A JUMP JUMPDEST PUSH1 0x5 SLOAD PUSH1 0x6 PUSH1 0x20 MSTORE PUSH32 0x3E5FEC24AA4DC4E5AEE2E025E51E1392C72A2500577559FAE9665C6D52BD6A31 SLOAD PUSH32 0x8819EF417987F8AE7A81F42CDFB18815282FE989326FBFF903D13CF0E03ACE29 SLOAD PUSH32 0x75F96AB15D697E93042DC45B5C896C4B27E89BB6EAF39475C5C371CB2513F7D2 SLOAD PUSH1 0x4 PUSH1 0x0 MSTORE PUSH32 0xC5069E24AAADB2ADDC3E52E868FCF3F4F8ACF5A87E24300992FD4540C2A87EED SLOAD PUSH1 0x40 DUP1 MLOAD SWAP6 DUP7 MSTORE PUSH1 0x20 DUP7 ADD SWAP5 SWAP1 SWAP5 MSTORE SWAP3 DUP5 ADD SWAP2 SWAP1 SWAP2 MSTORE PUSH1 0x60 DUP4 ADD MSTORE PUSH1 0x80 DUP3 ADD MSTORE PUSH1 0xA0 ADD PUSH2 0x12A JUMP JUMPDEST PUSH2 0x4C4 PUSH2 0x491 CALLDATASIZE PUSH1 0x4 PUSH2 0x1086 JUMP JUMPDEST PUSH1 0x3 PUSH1 0x20 DUP2 SWAP1 MSTORE PUSH1 0x0 SWAP2 DUP3 MSTORE PUSH1 0x40 SWAP1 SWAP2 KECCAK256 DUP1 SLOAD PUSH1 0x1 DUP3 ADD SLOAD PUSH1 0x2 DUP4 ADD SLOAD SWAP4 DUP4 ADD SLOAD PUSH1 0x4 SWAP1 SWAP4 ADD SLOAD SWAP2 SWAP4 SWAP1 SWAP3 SWAP1 SWAP2 PUSH1 0xFF AND DUP6 JUMP JUMPDEST PUSH1 0x40 DUP1 MLOAD SWAP6 DUP7 MSTORE PUSH1 0x20 DUP7 ADD SWAP5 SWAP1 SWAP5 MSTORE SWAP3 DUP5 ADD SWAP2 SWAP1 SWAP2 MSTORE PUSH1 0x60 DUP4 ADD MSTORE ISZERO ISZERO PUSH1 0x80 DUP3 ADD MSTORE PUSH1 0xA0 ADD PUSH2 0x12A JUMP JUMPDEST PUSH2 0x120 PUSH1 0x46 DUP2 JUMP JUMPDEST PUSH2 0x120 PUSH1 0xA DUP2 JUMP JUMPDEST PUSH2 0x120 PUSH2 0x50C CALLDATASIZE PUSH1 0x4 PUSH2 0x11F4 JUMP JUMPDEST PUSH2 0xAAE JUMP JUMPDEST PUSH2 0x120 PUSH1 0x28 DUP2 JUMP JUMPDEST PUSH2 0x186 PUSH2 0x527 CALLDATASIZE PUSH1 0x4 PUSH2 0x1086 JUMP JUMPDEST PUSH2 0xADF JUMP JUMPDEST PUSH1 0x1 PUSH1 0x1 PUSH1 0xA0 SHL SUB DUP2 AND PUSH1 0x0 SWAP1 DUP2 MSTORE PUSH1 0x4 PUSH1 0x20 SWAP1 DUP2 MSTORE PUSH1 0x40 SWAP2 DUP3 SWAP1 KECCAK256 DUP1 SLOAD DUP4 MLOAD DUP2 DUP5 MUL DUP2 ADD DUP5 ADD SWAP1 SWAP5 MSTORE DUP1 DUP5 MSTORE PUSH1 0x60 SWAP4 SWAP3 DUP4 ADD DUP3 DUP3 DUP1 ISZERO PUSH2 0x58C JUMPI PUSH1 0x20 MUL DUP3 ADD SWAP2 SWAP1 PUSH1 0x0 MSTORE PUSH1 0x20 PUSH1 0x0 KECCAK256 SWAP1 JUMPDEST DUP2 SLOAD DUP2 MSTORE PUSH1 0x20 ADD SWAP1 PUSH1 0x1 ADD SWAP1 DUP1 DUP4 GT PUSH2 0x578 JUMPI JUMPDEST POP POP POP POP POP SWAP1 POP SWAP2 SWAP1 POP JUMP JUMPDEST PUSH2 0x5A0 PUSH2 0xB1D JUMP JUMPDEST DUP4 PUSH1 0x1 PUSH1 0x1 PUSH1 0xA0 SHL SUB DUP2 AND PUSH2 0x5EE JUMPI PUSH1 0x40 MLOAD PUSH3 0x461BCD PUSH1 0xE5 SHL DUP2 MSTORE PUSH1 0x20 PUSH1 0x4 DUP3 ADD MSTORE PUSH1 0xF PUSH1 0x24 DUP3 ADD MSTORE PUSH15 0x496E76616C69642061646472657373 PUSH1 0x88 SHL PUSH1 0x44 DUP3 ADD MSTORE PUSH1 0x64 ADD JUMPDEST PUSH1 0x40 MLOAD DUP1 SWAP2 SUB SWAP1 REVERT JUMPDEST DUP4 PUSH1 0x1 PUSH1 0x1 PUSH1 0xA0 SHL SUB DUP2 AND PUSH2 0x637 JUMPI PUSH1 0x40 MLOAD PUSH3 0x461BCD PUSH1 0xE5 SHL DUP2 MSTORE PUSH1 0x20 PUSH1 0x4 DUP3 ADD MSTORE PUSH1 0xF PUSH1 0x24 DUP3 ADD MSTORE PUSH15 0x496E76616C69642061646472657373 PUSH1 0x88 SHL PUSH1 0x44 DUP3 ADD MSTORE PUSH1 0x64 ADD PUSH2 0x5E5 JUMP JUMPDEST DUP3 PUSH2 0x684 JUMPI PUSH1 0x40 MLOAD PUSH3 0x461BCD PUSH1 0xE5 SHL DUP2 MSTORE PUSH1 0x20 PUSH1 0x4 DUP3 ADD MSTORE PUSH1 0x18 PUSH1 0x24 DUP3 ADD MSTORE PUSH32 0x496E76616C6964207472616E73616374696F6E20686173680000000000000000 PUSH1 0x44 DUP3 ADD MSTORE PUSH1 0x64 ADD PUSH2 0x5E5 JUMP JUMPDEST PUSH1 0x0 DUP4 DUP2 MSTORE PUSH1 0x2 PUSH1 0x20 MSTORE PUSH1 0x40 SWAP1 KECCAK256 PUSH1 0x3 ADD SLOAD ISZERO PUSH2 0x6E3 JUMPI PUSH1 0x40 MLOAD PUSH3 0x461BCD PUSH1 0xE5 SHL DUP2 MSTORE PUSH1 0x20 PUSH1 0x4 DUP3 ADD MSTORE PUSH1 0x1C PUSH1 0x24 DUP3 ADD MSTORE PUSH32 0x5472616E73616374696F6E20616C726561647920616E616C797A656400000000 PUSH1 0x44 DUP3 ADD MSTORE PUSH1 0x64 ADD PUSH2 0x5E5 JUMP JUMPDEST PUSH1 0x0 PUSH2 0x6F0 DUP8 DUP8 DUP8 PUSH2 0xB47 JUMP JUMPDEST SWAP1 POP PUSH1 0x0 PUSH2 0x6FE DUP3 DUP8 PUSH2 0xD92 JUMP JUMPDEST SWAP1 POP PUSH1 0x0 PUSH1 0x46 DUP4 LT ISZERO SWAP1 POP PUSH1 0x0 PUSH1 0x40 MLOAD DUP1 PUSH2 0x100 ADD PUSH1 0x40 MSTORE DUP1 DUP12 PUSH1 0x1 PUSH1 0x1 PUSH1 0xA0 SHL SUB AND DUP2 MSTORE PUSH1 0x20 ADD DUP11 PUSH1 0x1 PUSH1 0x1 PUSH1 0xA0 SHL SUB AND DUP2 MSTORE PUSH1 0x20 ADD DUP10 DUP2 MSTORE PUSH1 0x20 ADD TIMESTAMP DUP2 MSTORE PUSH1 0x20 ADD DUP9 DUP2 MSTORE PUSH1 0x20 ADD DUP6 DUP2 MSTORE PUSH1 0x20 ADD DUP4 ISZERO ISZERO DUP2 MSTORE PUSH1 0x20 ADD DUP5 PUSH1 0xFF AND DUP2 MSTORE POP SWAP1 POP DUP1 PUSH1 0x2 PUSH1 0x0 DUP10 DUP2 MSTORE PUSH1 0x20 ADD SWAP1 DUP2 MSTORE PUSH1 0x20 ADD PUSH1 0x0 KECCAK256 PUSH1 0x0 DUP3 ADD MLOAD DUP2 PUSH1 0x0 ADD PUSH1 0x0 PUSH2 0x100 EXP DUP2 SLOAD DUP2 PUSH1 0x1 PUSH1 0x1 PUSH1 0xA0 SHL SUB MUL NOT AND SWAP1 DUP4 PUSH1 0x1 PUSH1 0x1 PUSH1 0xA0 SHL SUB AND MUL OR SWAP1 SSTORE POP PUSH1 0x20 DUP3 ADD MLOAD DUP2 PUSH1 0x1 ADD PUSH1 0x0 PUSH2 0x100 EXP DUP2 SLOAD DUP2 PUSH1 0x1 PUSH1 0x1 PUSH1 0xA0 SHL SUB MUL NOT AND SWAP1 DUP4 PUSH1 0x1 PUSH1 0x1 PUSH1 0xA0 SHL SUB AND MUL OR SWAP1 SSTORE POP PUSH1 0x40 DUP3 ADD MLOAD DUP2 PUSH1 0x2 ADD SSTORE PUSH1 0x60 DUP3 ADD MLOAD DUP2 PUSH1 0x3 ADD SSTORE PUSH1 0x80 DUP3 ADD MLOAD DUP2 PUSH1 0x4 ADD SSTORE PUSH1 0xA0 DUP3 ADD MLOAD DUP2 PUSH1 0x5 ADD SSTORE PUSH1 0xC0 DUP3 ADD MLOAD DUP2 PUSH1 0x6 ADD PUSH1 0x0 PUSH2 0x100 EXP DUP2 SLOAD DUP2 PUSH1 0xFF MUL NOT AND SWAP1 DUP4 ISZERO ISZERO MUL OR SWAP1 SSTORE POP PUSH1 0xE0 DUP3 ADD MLOAD DUP2 PUSH1 0x6 ADD PUSH1 0x1 PUSH2 0x100 EXP DUP2 SLOAD DUP2 PUSH1 0xFF MUL NOT AND SWAP1 DUP4 PUSH1 0xFF AND MUL OR SWAP1 SSTORE POP SWAP1 POP POP PUSH1 0x4 PUSH1 0x0 DUP12 PUSH1 0x1 PUSH1 0x1 PUSH1 0xA0 SHL SUB AND PUSH1 0x1 PUSH1 0x1 PUSH1 0xA0 SHL SUB AND DUP2 MSTORE PUSH1 0x20 ADD SWAP1 DUP2 MSTORE PUSH1 0x20 ADD PUSH1 0x0 KECCAK256 DUP8 SWAP1 DUP1 PUSH1 0x1 DUP2 SLOAD ADD DUP1 DUP3 SSTORE DUP1 SWAP2 POP POP PUSH1 0x1 SWAP1 SUB SWAP1 PUSH1 0x0 MSTORE PUSH1 0x20 PUSH1 0x0 KECCAK256 ADD PUSH1 0x0 SWAP1 SWAP2 SWAP1 SWAP2 SWAP1 SWAP2 POP SSTORE PUSH1 0x4 PUSH1 0x0 DUP11 PUSH1 0x1 PUSH1 0x1 PUSH1 0xA0 SHL SUB AND PUSH1 0x1 PUSH1 0x1 PUSH1 0xA0 SHL SUB AND DUP2 MSTORE PUSH1 0x20 ADD SWAP1 DUP2 MSTORE PUSH1 0x20 ADD PUSH1 0x0 KECCAK256 DUP8 SWAP1 DUP1 PUSH1 0x1 DUP2 SLOAD ADD DUP1 DUP3 SSTORE DUP1 SWAP2 POP POP PUSH1 0x1 SWAP1 SUB SWAP1 PUSH1 0x0 MSTORE PUSH1 0x20 PUSH1 0x0 KECCAK256 ADD PUSH1 0x0 SWAP1 SWAP2 SWAP1 SWAP2 SWAP1 SWAP2 POP SSTORE PUSH2 0x8DB DUP11 DUP10 DUP7 PUSH2 0xE0E JUMP JUMPDEST PUSH2 0x8E6 DUP10 DUP10 DUP7 PUSH2 0xE0E JUMP JUMPDEST PUSH1 0x5 DUP1 SLOAD SWAP1 PUSH1 0x0 PUSH2 0x8F6 DUP4 PUSH2 0x1234 JUMP JUMPDEST SWAP1 SWAP2 SSTORE POP POP PUSH1 0xFF DUP4 AND PUSH1 0x0 SWAP1 DUP2 MSTORE PUSH1 0x6 PUSH1 0x20 MSTORE PUSH1 0x40 DUP2 KECCAK256 DUP1 SLOAD SWAP2 PUSH2 0x919 DUP4 PUSH2 0x1234 JUMP JUMPDEST SWAP1 SWAP2 SSTORE POP POP PUSH1 0x40 DUP1 MLOAD DUP6 DUP2 MSTORE PUSH1 0xFF DUP6 AND PUSH1 0x20 DUP3 ADD MSTORE TIMESTAMP DUP2 DUP4 ADD MSTORE SWAP1 MLOAD PUSH1 0x1 PUSH1 0x1 PUSH1 0xA0 SHL SUB DUP13 AND SWAP2 DUP10 SWAP2 PUSH32 0x244DC321A9D098F5614F705593C078B0CAB92E61A1187B85AB8B9356D94D856F SWAP2 DUP2 SWAP1 SUB PUSH1 0x60 ADD SWAP1 LOG3 DUP2 ISZERO PUSH2 0x97D JUMPI PUSH2 0x97D DUP11 DUP5 DUP7 PUSH2 0xF15 JUMP JUMPDEST POP POP POP POP POP POP PUSH2 0x98C PUSH1 0x1 DUP1 SSTORE JUMP JUMPDEST POP POP POP POP JUMP JUMPDEST PUSH2 0x9CD PUSH1 0x40 MLOAD DUP1 PUSH1 0xC0 ADD PUSH1 0x40 MSTORE DUP1 PUSH1 0x0 DUP2 MSTORE PUSH1 0x20 ADD PUSH1 0x0 DUP2 MSTORE PUSH1 0x20 ADD PUSH1 0x0 DUP2 MSTORE PUSH1 0x20 ADD PUSH1 0x0 DUP2 MSTORE PUSH1 0x20 ADD PUSH1 0x0 ISZERO ISZERO DUP2 MSTORE PUSH1 0x20 ADD PUSH1 0x60 DUP2 MSTORE POP SWAP1 JUMP JUMPDEST PUSH1 0x1 PUSH1 0x1 PUSH1 0xA0 SHL SUB DUP3 AND PUSH1 0x0 SWAP1 DUP2 MSTORE PUSH1 0x3 PUSH1 0x20 DUP2 DUP2 MSTORE PUSH1 0x40 SWAP3 DUP4 SWAP1 KECCAK256 DUP4 MLOAD PUSH1 0xC0 DUP2 ADD DUP6 MSTORE DUP2 SLOAD DUP2 MSTORE PUSH1 0x1 DUP3 ADD SLOAD DUP2 DUP5 ADD MSTORE PUSH1 0x2 DUP3 ADD SLOAD DUP2 DUP7 ADD MSTORE SWAP3 DUP2 ADD SLOAD PUSH1 0x60 DUP5 ADD MSTORE PUSH1 0x4 DUP2 ADD SLOAD PUSH1 0xFF AND ISZERO ISZERO PUSH1 0x80 DUP5 ADD MSTORE PUSH1 0x5 DUP2 ADD DUP1 SLOAD DUP6 MLOAD DUP2 DUP6 MUL DUP2 ADD DUP6 ADD SWAP1 SWAP7 MSTORE DUP1 DUP7 MSTORE SWAP4 SWAP5 SWAP2 SWAP4 PUSH1 0xA0 DUP7 ADD SWAP4 DUP4 ADD DUP3 DUP3 DUP1 ISZERO PUSH2 0xA8A JUMPI PUSH1 0x20 MUL DUP3 ADD SWAP2 SWAP1 PUSH1 0x0 MSTORE PUSH1 0x20 PUSH1 0x0 KECCAK256 SWAP1 PUSH1 0x0 SWAP1 JUMPDEST DUP3 SLOAD PUSH2 0x100 DUP4 SWAP1 EXP SWAP1 DIV PUSH1 0xFF AND DUP2 MSTORE PUSH1 0x20 PUSH1 0x1 SWAP3 DUP4 ADD DUP2 DUP2 DIV SWAP5 DUP6 ADD SWAP5 SWAP1 SWAP4 SUB SWAP1 SWAP3 MUL SWAP2 ADD DUP1 DUP5 GT PUSH2 0xA5B JUMPI SWAP1 POP JUMPDEST POP POP POP POP POP DUP2 MSTORE POP POP SWAP1 POP SWAP2 SWAP1 POP JUMP JUMPDEST PUSH2 0xAA2 PUSH2 0xFED JUMP JUMPDEST PUSH2 0xAAC PUSH1 0x0 PUSH2 0x101A JUMP JUMPDEST JUMP JUMPDEST PUSH1 0x4 PUSH1 0x20 MSTORE DUP2 PUSH1 0x0 MSTORE PUSH1 0x40 PUSH1 0x0 KECCAK256 DUP2 DUP2 SLOAD DUP2 LT PUSH2 0xACA JUMPI PUSH1 0x0 DUP1 REVERT JUMPDEST SWAP1 PUSH1 0x0 MSTORE PUSH1 0x20 PUSH1 0x0 KECCAK256 ADD PUSH1 0x0 SWAP2 POP SWAP2 POP POP SLOAD DUP2 JUMP JUMPDEST PUSH2 0xAE7 PUSH2 0xFED JUMP JUMPDEST PUSH1 0x1 PUSH1 0x1 PUSH1 0xA0 SHL SUB DUP2 AND PUSH2 0xB11 JUMPI PUSH1 0x40 MLOAD PUSH4 0x1E4FBDF7 PUSH1 0xE0 SHL DUP2 MSTORE PUSH1 0x0 PUSH1 0x4 DUP3 ADD MSTORE PUSH1 0x24 ADD PUSH2 0x5E5 JUMP JUMPDEST PUSH2 0xB1A DUP2 PUSH2 0x101A JUMP JUMPDEST POP JUMP JUMPDEST PUSH1 0x2 PUSH1 0x1 SLOAD SUB PUSH2 0xB40 JUMPI PUSH1 0x40 MLOAD PUSH4 0x3EE5AEB5 PUSH1 0xE0 SHL DUP2 MSTORE PUSH1 0x4 ADD PUSH1 0x40 MLOAD DUP1 SWAP2 SUB SWAP1 REVERT JUMPDEST PUSH1 0x2 PUSH1 0x1 SSTORE JUMP JUMPDEST PUSH1 0x0 DUP1 PUSH9 0x3635C9ADC5DEA00000 DUP4 GT ISZERO PUSH2 0xB69 JUMPI PUSH2 0xB66 PUSH1 0x1E DUP3 PUSH2 0x124D JUMP JUMPDEST SWAP1 POP JUMPDEST PUSH1 0x1 PUSH1 0x1 PUSH1 0xA0 SHL SUB DUP6 AND PUSH1 0x0 SWAP1 DUP2 MSTORE PUSH1 0x3 PUSH1 0x20 DUP2 DUP2 MSTORE PUSH1 0x40 DUP1 DUP5 KECCAK256 DUP2 MLOAD PUSH1 0xC0 DUP2 ADD DUP4 MSTORE DUP2 SLOAD DUP2 MSTORE PUSH1 0x1 DUP3 ADD SLOAD DUP2 DUP6 ADD MSTORE PUSH1 0x2 DUP3 ADD SLOAD DUP2 DUP5 ADD MSTORE SWAP4 DUP2 ADD SLOAD PUSH1 0x60 DUP6 ADD MSTORE PUSH1 0x4 DUP2 ADD SLOAD PUSH1 0xFF AND ISZERO ISZERO PUSH1 0x80 DUP6 ADD MSTORE PUSH1 0x5 DUP2 ADD DUP1 SLOAD DUP4 MLOAD DUP2 DUP7 MUL DUP2 ADD DUP7 ADD SWAP1 SWAP5 MSTORE DUP1 DUP5 MSTORE SWAP2 SWAP4 PUSH1 0xA0 DUP7 ADD SWAP4 SWAP3 SWAP1 DUP4 ADD DUP3 DUP3 DUP1 ISZERO PUSH2 0xC25 JUMPI PUSH1 0x20 MUL DUP3 ADD SWAP2 SWAP1 PUSH1 0x0 MSTORE PUSH1 0x20 PUSH1 0x0 KECCAK256 SWAP1 PUSH1 0x0 SWAP1 JUMPDEST DUP3 SLOAD PUSH2 0x100 DUP4 SWAP1 EXP SWAP1 DIV PUSH1 0xFF AND DUP2 MSTORE PUSH1 0x20 PUSH1 0x1 SWAP3 DUP4 ADD DUP2 DUP2 DIV SWAP5 DUP6 ADD SWAP5 SWAP1 SWAP4 SUB SWAP1 SWAP3 MUL SWAP2 ADD DUP1 DUP5 GT PUSH2 0xBF6 JUMPI SWAP1 POP JUMPDEST POP POP POP SWAP2 SWAP1 SWAP3 MSTORE POP POP POP PUSH1 0x1 PUSH1 0x1 PUSH1 0xA0 SHL SUB DUP7 AND PUSH1 0x0 SWAP1 DUP2 MSTORE PUSH1 0x3 PUSH1 0x20 DUP2 DUP2 MSTORE PUSH1 0x40 DUP1 DUP5 KECCAK256 DUP2 MLOAD PUSH1 0xC0 DUP2 ADD DUP4 MSTORE DUP2 SLOAD DUP2 MSTORE PUSH1 0x1 DUP3 ADD SLOAD DUP2 DUP6 ADD MSTORE PUSH1 0x2 DUP3 ADD SLOAD DUP2 DUP5 ADD MSTORE SWAP4 DUP2 ADD SLOAD PUSH1 0x60 DUP6 ADD MSTORE PUSH1 0x4 DUP2 ADD SLOAD PUSH1 0xFF AND ISZERO ISZERO PUSH1 0x80 DUP6 ADD MSTORE PUSH1 0x5 DUP2 ADD DUP1 SLOAD DUP4 MLOAD DUP2 DUP7 MUL DUP2 ADD DUP7 ADD SWAP1 SWAP5 MSTORE DUP1 DUP5 MSTORE SWAP7 SWAP8 POP SWAP5 SWAP6 SWAP4 SWAP5 SWAP1 SWAP4 PUSH1 0xA0 DUP7 ADD SWAP4 DUP4 ADD DUP3 DUP3 DUP1 ISZERO PUSH2 0xCF0 JUMPI PUSH1 0x20 MUL DUP3 ADD SWAP2 SWAP1 PUSH1 0x0 MSTORE PUSH1 0x20 PUSH1 0x0 KECCAK256 SWAP1 PUSH1 0x0 SWAP1 JUMPDEST DUP3 SLOAD PUSH2 0x100 DUP4 SWAP1 EXP SWAP1 DIV PUSH1 0xFF AND DUP2 MSTORE PUSH1 0x20 PUSH1 0x1 SWAP3 DUP4 ADD DUP2 DUP2 DIV SWAP5 DUP6 ADD SWAP5 SWAP1 SWAP4 SUB SWAP1 SWAP3 MUL SWAP2 ADD DUP1 DUP5 GT PUSH2 0xCC1 JUMPI SWAP1 POP JUMPDEST POP POP POP POP POP DUP2 MSTORE POP POP SWAP1 POP DUP2 PUSH1 0x80 ADD MLOAD ISZERO PUSH2 0xD13 JUMPI PUSH2 0xD10 PUSH1 0x19 DUP5 PUSH2 0x124D JUMP JUMPDEST SWAP3 POP JUMPDEST DUP1 PUSH1 0x80 ADD MLOAD ISZERO PUSH2 0xD2B JUMPI PUSH2 0xD28 PUSH1 0xF DUP5 PUSH2 0x124D JUMP JUMPDEST SWAP3 POP JUMPDEST DUP2 MLOAD PUSH1 0x0 SUB PUSH2 0xD42 JUMPI PUSH2 0xD3F PUSH1 0xA DUP5 PUSH2 0x124D JUMP JUMPDEST SWAP3 POP JUMPDEST DUP2 MLOAD ISZERO PUSH2 0xD76 JUMPI PUSH1 0x0 DUP3 PUSH1 0x60 ADD MLOAD TIMESTAMP PUSH2 0xD5B SWAP2 SWAP1 PUSH2 0x1260 JUMP JUMPDEST SWAP1 POP PUSH1 0x3C DUP2 LT ISZERO PUSH2 0xD74 JUMPI PUSH2 0xD71 PUSH1 0x14 DUP6 PUSH2 0x124D JUMP JUMPDEST SWAP4 POP JUMPDEST POP JUMPDEST PUSH1 0x64 DUP4 GT PUSH2 0xD84 JUMPI DUP3 PUSH2 0xD87 JUMP JUMPDEST PUSH1 0x64 JUMPDEST SWAP8 SWAP7 POP POP POP POP POP POP POP JUMP JUMPDEST PUSH1 0x0 PUSH1 0x50 DUP4 LT ISZERO DUP1 PUSH2 0xDAD JUMPI POP PUSH10 0x10F0CF064DD59200000 DUP3 GT JUMPDEST ISZERO PUSH2 0xDBA JUMPI POP PUSH1 0x1 PUSH2 0xE08 JUMP JUMPDEST PUSH1 0x3C DUP4 LT ISZERO DUP1 PUSH2 0xDD2 JUMPI POP PUSH9 0x3635C9ADC5DEA00000 DUP3 GT JUMPDEST ISZERO PUSH2 0xDDF JUMPI POP PUSH1 0x2 PUSH2 0xE08 JUMP JUMPDEST PUSH1 0x28 DUP4 LT ISZERO DUP1 PUSH2 0xDF7 JUMPI POP PUSH9 0x56BC75E2D63100000 DUP3 GT JUMPDEST ISZERO PUSH2 0xE04 JUMPI POP PUSH1 0x3 PUSH2 0xE08 JUMP JUMPDEST POP PUSH1 0x4 JUMPDEST SWAP3 SWAP2 POP POP JUMP JUMPDEST PUSH1 0x1 PUSH1 0x1 PUSH1 0xA0 SHL SUB DUP4 AND PUSH1 0x0 SWAP1 DUP2 MSTORE PUSH1 0x3 PUSH1 0x20 MSTORE PUSH1 0x40 DUP2 KECCAK256 DUP1 SLOAD SWAP1 SWAP2 DUP3 SWAP1 PUSH2 0xE35 DUP4 PUSH2 0x1234 JUMP JUMPDEST SWAP2 SWAP1 POP SSTORE POP DUP3 DUP2 PUSH1 0x1 ADD PUSH1 0x0 DUP3 DUP3 SLOAD PUSH2 0xE4E SWAP2 SWAP1 PUSH2 0x124D JUMP JUMPDEST SWAP1 SWAP2 SSTORE POP POP TIMESTAMP PUSH1 0x3 DUP3 ADD SSTORE DUP1 SLOAD PUSH1 0x1 SUB PUSH2 0xE6E JUMPI PUSH1 0x2 DUP2 ADD DUP3 SWAP1 SSTORE PUSH2 0xEA5 JUMP JUMPDEST PUSH1 0xA PUSH2 0xE7B DUP4 PUSH1 0x3 PUSH2 0x1273 JUMP JUMPDEST PUSH1 0x2 DUP4 ADD SLOAD PUSH2 0xE8B SWAP1 PUSH1 0x7 PUSH2 0x1273 JUMP JUMPDEST PUSH2 0xE95 SWAP2 SWAP1 PUSH2 0x124D JUMP JUMPDEST PUSH2 0xE9F SWAP2 SWAP1 PUSH2 0x128A JUMP JUMPDEST PUSH1 0x2 DUP3 ADD SSTORE JUMPDEST PUSH1 0x2 DUP2 ADD SLOAD PUSH1 0x4 DUP3 ADD DUP1 SLOAD PUSH1 0xFF NOT AND PUSH1 0x46 DUP4 LT ISZERO OR SWAP1 SSTORE DUP2 SLOAD PUSH1 0x1 DUP4 ADD SLOAD PUSH1 0x40 DUP1 MLOAD SWAP4 DUP5 MSTORE PUSH1 0x20 DUP5 ADD SWAP3 SWAP1 SWAP3 MSTORE SWAP1 DUP3 ADD MSTORE PUSH1 0x1 PUSH1 0x1 PUSH1 0xA0 SHL SUB DUP6 AND SWAP1 PUSH32 0x37D44544D97812D6FCB20AB0A2DD3E35FCD5B39E72C65EACA25696A9B7FE2D0E SWAP1 PUSH1 0x60 ADD JUMPDEST PUSH1 0x40 MLOAD DUP1 SWAP2 SUB SWAP1 LOG2 POP POP POP POP JUMP JUMPDEST PUSH1 0x60 DUP3 PUSH1 0xFF AND PUSH1 0x1 SUB PUSH2 0xF42 JUMPI PUSH1 0x40 MLOAD DUP1 PUSH1 0x60 ADD PUSH1 0x40 MSTORE DUP1 PUSH1 0x32 DUP2 MSTORE PUSH1 0x20 ADD PUSH2 0x1344 PUSH1 0x32 SWAP2 CODECOPY SWAP1 POP PUSH2 0xFAE JUMP JUMPDEST DUP3 PUSH1 0xFF AND PUSH1 0x2 SUB PUSH2 0xF6D JUMPI PUSH1 0x40 MLOAD DUP1 PUSH1 0x60 ADD PUSH1 0x40 MSTORE DUP1 PUSH1 0x30 DUP2 MSTORE PUSH1 0x20 ADD PUSH2 0x1314 PUSH1 0x30 SWAP2 CODECOPY SWAP1 POP PUSH2 0xFAE JUMP JUMPDEST DUP3 PUSH1 0xFF AND PUSH1 0x3 SUB PUSH2 0xFAE JUMPI POP PUSH1 0x40 DUP1 MLOAD DUP1 DUP3 ADD SWAP1 SWAP2 MSTORE PUSH1 0x1D DUP2 MSTORE PUSH32 0x4D656469756D207269736B202D206D6F6E69746F7220636C6F73656C79000000 PUSH1 0x20 DUP3 ADD MSTORE JUMPDEST DUP4 PUSH1 0x1 PUSH1 0x1 PUSH1 0xA0 SHL SUB AND PUSH32 0x1AE197866F199690C7FB2F0AA4F5377601A4A503F57A90FFC6AE552EFE2F186E DUP5 DUP5 DUP5 TIMESTAMP PUSH1 0x40 MLOAD PUSH2 0xF07 SWAP5 SWAP4 SWAP3 SWAP2 SWAP1 PUSH2 0x12AC JUMP JUMPDEST PUSH1 0x0 SLOAD PUSH1 0x1 PUSH1 0x1 PUSH1 0xA0 SHL SUB AND CALLER EQ PUSH2 0xAAC JUMPI PUSH1 0x40 MLOAD PUSH4 0x118CDAA7 PUSH1 0xE0 SHL DUP2 MSTORE CALLER PUSH1 0x4 DUP3 ADD MSTORE PUSH1 0x24 ADD PUSH2 0x5E5 JUMP JUMPDEST PUSH1 0x0 DUP1 SLOAD PUSH1 0x1 PUSH1 0x1 PUSH1 0xA0 SHL SUB DUP4 DUP2 AND PUSH1 0x1 PUSH1 0x1 PUSH1 0xA0 SHL SUB NOT DUP4 AND DUP2 OR DUP5 SSTORE PUSH1 0x40 MLOAD SWAP2 SWAP1 SWAP3 AND SWAP3 DUP4 SWAP2 PUSH32 0x8BE0079C531659141344CD1FD0A4F28419497F9722A3DAAFE3B4186F6B6457E0 SWAP2 SWAP1 LOG3 POP POP JUMP JUMPDEST DUP1 CALLDATALOAD PUSH1 0x1 PUSH1 0x1 PUSH1 0xA0 SHL SUB DUP2 AND DUP2 EQ PUSH2 0x1081 JUMPI PUSH1 0x0 DUP1 REVERT JUMPDEST SWAP2 SWAP1 POP JUMP JUMPDEST PUSH1 0x0 PUSH1 0x20 DUP3 DUP5 SUB SLT ISZERO PUSH2 0x1098 JUMPI PUSH1 0x0 DUP1 REVERT JUMPDEST PUSH2 0x10A1 DUP3 PUSH2 0x106A JUMP JUMPDEST SWAP4 SWAP3 POP POP POP JUMP JUMPDEST PUSH1 0x20 DUP1 DUP3 MSTORE DUP3 MLOAD DUP3 DUP3 ADD DUP2 SWAP1 MSTORE PUSH1 0x0 SWAP2 SWAP1 DUP5 DUP3 ADD SWAP1 PUSH1 0x40 DUP6 ADD SWAP1 DUP5 JUMPDEST DUP2 DUP2 LT ISZERO PUSH2 0x10E0 JUMPI DUP4 MLOAD DUP4 MSTORE SWAP3 DUP5 ADD SWAP3 SWAP2 DUP5 ADD SWAP2 PUSH1 0x1 ADD PUSH2 0x10C4 JUMP JUMPDEST POP SWAP1 SWAP7 SWAP6 POP POP POP POP POP POP JUMP JUMPDEST PUSH1 0x0 PUSH1 0x20 DUP3 DUP5 SUB SLT ISZERO PUSH2 0x10FE JUMPI PUSH1 0x0 DUP1 REVERT JUMPDEST DUP2 CALLDATALOAD PUSH1 0xFF DUP2 AND DUP2 EQ PUSH2 0x10A1 JUMPI PUSH1 0x0 DUP1 REVERT JUMPDEST PUSH1 0x0 DUP1 PUSH1 0x0 DUP1 PUSH1 0x80 DUP6 DUP8 SUB SLT ISZERO PUSH2 0x1125 JUMPI PUSH1 0x0 DUP1 REVERT JUMPDEST PUSH2 0x112E DUP6 PUSH2 0x106A JUMP JUMPDEST SWAP4 POP PUSH2 0x113C PUSH1 0x20 DUP7 ADD PUSH2 0x106A JUMP JUMPDEST SWAP4 SWAP7 SWAP4 SWAP6 POP POP POP POP PUSH1 0x40 DUP3 ADD CALLDATALOAD SWAP2 PUSH1 0x60 ADD CALLDATALOAD SWAP1 JUMP JUMPDEST PUSH1 0x0 PUSH1 0x20 DUP1 DUP4 MSTORE PUSH1 0xE0 DUP4 ADD DUP5 MLOAD DUP3 DUP6 ADD MSTORE DUP2 DUP6 ADD MLOAD PUSH1 0x40 DUP6 ADD MSTORE PUSH1 0x40 DUP6 ADD MLOAD PUSH1 0x60 DUP6 ADD MSTORE PUSH1 0x60 DUP6 ADD MLOAD PUSH1 0x80 DUP6 ADD MSTORE PUSH1 0x80 DUP6 ADD MLOAD ISZERO ISZERO PUSH1 0xA0 DUP6 ADD MSTORE PUSH1 0xA0 DUP6 ADD MLOAD PUSH1 0xC0 DUP1 DUP7 ADD MSTORE DUP2 DUP2 MLOAD DUP1 DUP5 MSTORE PUSH2 0x100 DUP8 ADD SWAP2 POP DUP5 DUP4 ADD SWAP4 POP PUSH1 0x0 SWAP3 POP JUMPDEST DUP1 DUP4 LT ISZERO PUSH2 0x11D0 JUMPI DUP4 MLOAD PUSH1 0xFF AND DUP3 MSTORE SWAP3 DUP5 ADD SWAP3 PUSH1 0x1 SWAP3 SWAP1 SWAP3 ADD SWAP2 SWAP1 DUP5 ADD SWAP1 PUSH2 0x11AD JUMP JUMPDEST POP SWAP7 SWAP6 POP POP POP POP POP POP JUMP JUMPDEST PUSH1 0x0 PUSH1 0x20 DUP3 DUP5 SUB SLT ISZERO PUSH2 0x11ED JUMPI PUSH1 0x0 DUP1 REVERT JUMPDEST POP CALLDATALOAD SWAP2 SWAP1 POP JUMP JUMPDEST PUSH1 0x0 DUP1 PUSH1 0x40 DUP4 DUP6 SUB SLT ISZERO PUSH2 0x1207 JUMPI PUSH1 0x0 DUP1 REVERT JUMPDEST PUSH2 0x1210 DUP4 PUSH2 0x106A JUMP JUMPDEST SWAP5 PUSH1 0x20 SWAP4 SWAP1 SWAP4 ADD CALLDATALOAD SWAP4 POP POP POP JUMP JUMPDEST PUSH4 0x4E487B71 PUSH1 0xE0 SHL PUSH1 0x0 MSTORE PUSH1 0x11 PUSH1 0x4 MSTORE PUSH1 0x24 PUSH1 0x0 REVERT JUMPDEST PUSH1 0x0 PUSH1 0x1 DUP3 ADD PUSH2 0x1246 JUMPI PUSH2 0x1246 PUSH2 0x121E JUMP JUMPDEST POP PUSH1 0x1 ADD SWAP1 JUMP JUMPDEST DUP1 DUP3 ADD DUP1 DUP3 GT ISZERO PUSH2 0xE08 JUMPI PUSH2 0xE08 PUSH2 0x121E JUMP JUMPDEST DUP2 DUP2 SUB DUP2 DUP2 GT ISZERO PUSH2 0xE08 JUMPI PUSH2 0xE08 PUSH2 0x121E JUMP JUMPDEST DUP1 DUP3 MUL DUP2 ISZERO DUP3 DUP3 DIV DUP5 EQ OR PUSH2 0xE08 JUMPI PUSH2 0xE08 PUSH2 0x121E JUMP JUMPDEST PUSH1 0x0 DUP3 PUSH2 0x12A7 JUMPI PUSH4 0x4E487B71 PUSH1 0xE0 SHL PUSH1 0x0 MSTORE PUSH1 0x12 PUSH1 0x4 MSTORE PUSH1 0x24 PUSH1 0x0 REVERT JUMPDEST POP DIV SWAP1 JUMP JUMPDEST PUSH1 0xFF DUP6 AND DUP2 MSTORE PUSH1 0x0 PUSH1 0x20 DUP6 DUP2 DUP5 ADD MSTORE PUSH1 0x80 PUSH1 0x40 DUP5 ADD MSTORE DUP5 MLOAD DUP1 PUSH1 0x80 DUP6 ADD MSTORE PUSH1 0x0 JUMPDEST DUP2 DUP2 LT ISZERO PUSH2 0x12E9 JUMPI DUP7 DUP2 ADD DUP4 ADD MLOAD DUP6 DUP3 ADD PUSH1 0xA0 ADD MSTORE DUP3 ADD PUSH2 0x12CD JUMP JUMPDEST POP PUSH1 0x0 PUSH1 0xA0 DUP3 DUP7 ADD ADD MSTORE PUSH1 0xA0 PUSH1 0x1F NOT PUSH1 0x1F DUP4 ADD AND DUP6 ADD ADD SWAP3 POP POP POP DUP3 PUSH1 0x60 DUP4 ADD MSTORE SWAP6 SWAP5 POP POP POP POP POP JUMP INVALID BASEFEE PUSH10 0x6768207269736B207472 PUSH2 0x6E73 PUSH2 0x6374 PUSH10 0x6F6E202D20756E757375 PUSH2 0x6C20 PUSH2 0x6374 PUSH10 0x76697479207061747465 PUSH19 0x6E437269746963616C207269736B2064657465 PUSH4 0x74656420 0x2D KECCAK256 PUSH17 0x6F74656E7469616C207365637572697479 KECCAK256 PUSH21 0x6872656174A26469706673582212208172913CB5C7 0xCC 0xEB MSIZE PUSH16 0xA9F17797CFB3BB321A7C17BC7D31E288 PUSH1 0x65 SWAP10 NUMBER 0xEF 0x29 PUSH5 0x736F6C6343 STOP ADDMOD EQ STOP CALLER "},"methodIdentifiers":{"FREQUENCY_SPIKE_THRESHOLD()":"9ed990cf","HIGH_RISK_THRESHOLD()":"9dcbd55c","MEDIUM_RISK_THRESHOLD()":"bbcf9fee","VOLUME_ANOMALY_THRESHOLD()":"0ae7278a","analyzeTransaction(address,address,uint256,bytes32)":"3b0877d2","getAnalyticsSummary()":"8db99701","getTransactionDetails(bytes32)":"515a39b6","getWalletProfile(address)":"3c123e28","getWalletTransactions(address)":"145045e6","owner()":"8da5cb5b","renounceOwnership()":"715018a6","riskCategoryCounts(uint8)":"1a217b2a","totalTransactionsAnalyzed()":"6d5cdd9d","transactions(bytes32)":"642f2eaf","transferOwnership(address)":"f2fde38b","walletProfiles(address)":"8e71fc03","walletTransactions(address,uint256)":"9f8e6164"}}}}}