{
  "_format": "hh-sol-artifact-1",
  "contractName": "TransactionMonitor",
  "sourceName": "contracts/TransactionMonitor.sol",
  "abi": [
    {
      "inputs": [],
      "stateMutability": "nonpayable",
      "type": "constructor"
    },
    {
      "inputs": [
        {
          "internalType": "address",
          "name": "owner",
          "type": "address"
        }
      ],
      "name": "OwnableInvalidOwner",
      "type": "error"
    },
    {
      "inputs": [
        {
          "internalType": "address",
          "name": "account",
          "type": "address"
        }
      ],
      "name": "OwnableUnauthorizedAccount",
      "type": "error"
    },
    {
      "inputs": [],
      "name": "ReentrancyGuardReentrantCall",
      "type": "error"
    },
    {
      "anonymous": false,
      "inputs": [
        {
          "indexed": true,
          "internalType": "address",
          "name": "previousOwner",
          "type": "address"
        },
        {
          "indexed": true,
          "internalType": "address",
          "name": "newOwner",
          "type": "address"
        }
      ],
      "name": "OwnershipTransferred",
      "type": "event"
    },
    {
      "anonymous": false,
      "inputs": [
        {
          "indexed": true,
          "internalType": "address",
          "name": "wallet",
          "type": "address"
        },
        {
          "indexed": false,
          "internalType": "uint8",
          "name": "alertType",
          "type": "uint8"
        },
        {
          "indexed": false,
          "internalType": "uint256",
          "name": "severity",
          "type": "uint256"
        },
        {
          "indexed": false,
          "internalType": "string",
          "name": "description",
          "type": "string"
        },
        {
          "indexed": false,
          "internalType": "uint256",
          "name": "timestamp",
          "type": "uint256"
        }
      ],
      "name": "RiskAlert",
      "type": "event"
    },
    {
      "anonymous": false,
      "inputs": [
        {
          "indexed": true,
          "internalType": "bytes32",
          "name": "txHash",
          "type": "bytes32"
        },
        {
          "indexed": true,
          "internalType": "address",
          "name": "wallet",
          "type": "address"
        },
        {
          "indexed": false,
          "internalType": "uint256",
          "name": "riskScore",
          "type": "uint256"
        },
        {
          "indexed": false,
          "internalType": "uint8",
          "name": "riskCategory",
          "type": "uint8"
        },
        {
          "indexed": false,
          "internalType": "uint256",
          "name": "timestamp",
          "type": "uint256"
        }
      ],
      "name": "TransactionAnalyzed",
      "type": "event"
    },
    {
      "anonymous": false,
      "inputs": [
        {
          "indexed": true,
          "internalType": "address",
          "name": "wallet",
          "type": "address"
        },
        {
          "indexed": false,
          "internalType": "uint256",
          "name": "riskScore",
          "type": "uint256"
        },
        {
          "indexed": false,
          "internalType": "uint256",
          "name": "totalTransactions",
          "type": "uint256"
        },
        {
          "indexed": false,
          "internalType": "uint256",
          "name": "totalVolume",
          "type": "uint256"
        }
      ],
      "name": "WalletProfileUpdated",
      "type": "event"
    },
    {
      "inputs": [],
      "name": "FREQUENCY_SPIKE_THRESHOLD",
      "outputs": [
        {
          "internalType": "uint256",
          "name": "",
          "type": "uint256"
        }
      ],
      "stateMutability": "view",
      "type": "function"
    },
    {
      "inputs": [],
      "name": "HIGH_RISK_THRESHOLD",
      "outputs": [
        {
          "internalType": "uint256",
          "name": "",
          "type": "uint256"
        }
      ],
      "stateMutability": "view",
      "type": "function"
    },
    {
      "inputs": [],
      "name": "MEDIUM_RISK_THRESHOLD",
      "outputs": [
        {
          "internalType": "uint256",
          "name": "",
          "type": "uint256"
        }
      ],
      "stateMutability": "view",
      "type": "function"
    },
    {
      "inputs": [],
      "name": "VOLUME_ANOMALY_THRESHOLD",
      "outputs": [
        {
          "internalType": "uint256",
          "name": "",
          "type": "uint256"
        }
      ],
      "stateMutability": "view",
      "type": "function"
    },
    {
      "inputs": [
        {
          "internalType": "address",
          "name": "_from",
          "type": "address"
        },
        {
          "internalType": "address",
          "name": "_to",
          "type": "address"
        },
        {
          "internalType": "uint256",
          "name": "_value",
          "type": "uint256"
        },
        {
          "internalType": "bytes32",
          "name": "_txHash",
          "type": "bytes32"
        }
      ],
      "name": "analyzeTransaction",
      "outputs": [],
      "stateMutability": "nonpayable",
      "type": "function"
    },
    {
      "inputs": [],
      "name": "getAnalyticsSummary",
      "outputs": [
        {
          "internalType": "uint256",
          "name": "totalAnalyzed",
          "type": "uint256"
        },
        {
          "internalType": "uint256",
          "name": "criticalRisk",
          "type": "uint256"
        },
        {
          "internalType": "uint256",
          "name": "highRisk",
          "type": "uint256"
        },
        {
          "internalType": "uint256",
          "name": "mediumRisk",
          "type": "uint256"
        },
        {
          "internalType": "uint256",
          "name": "lowRisk",
          "type": "uint256"
        }
      ],
      "stateMutability": "view",
      "type": "function"
    },
    {
      "inputs": [
        {
          "internalType": "bytes32",
          "name": "_txHash",
          "type": "bytes32"
        }
      ],
      "name": "getTransactionDetails",
      "outputs": [
        {
          "components": [
            {
              "internalType": "address",
              "name": "from",
              "type": "address"
            },
            {
              "internalType": "address",
              "name": "to",
              "type": "address"
            },
            {
              "internalType": "uint256",
              "name": "value",
              "type": "uint256"
            },
            {
              "internalType": "uint256",
              "name": "timestamp",
              "type": "uint256"
            },
            {
              "internalType": "bytes32",
              "name": "txHash",
              "type": "bytes32"
            },
            {
              "internalType": "uint256",
              "name": "riskScore",
              "type": "uint256"
            },
            {
              "internalType": "bool",
              "name": "flagged",
              "type": "bool"
            },
            {
              "internalType": "uint8",
              "name": "category",
              "type": "uint8"
            }
          ],
          "internalType": "struct TransactionMonitor.TransactionData",
          "name": "",
          "type": "tuple"
        }
      ],
      "stateMutability": "view",
      "type": "function"
    },
    {
      "inputs": [
        {
          "internalType": "address",
          "name": "_wallet",
          "type": "address"
        }
      ],
      "name": "getWalletProfile",
      "outputs": [
        {
          "components": [
            {
              "internalType": "uint256",
              "name": "totalTransactions",
              "type": "uint256"
            },
            {
              "internalType": "uint256",
              "name": "totalVolume",
              "type": "uint256"
            },
            {
              "internalType": "uint256",
              "name": "riskScore",
              "type": "uint256"
            },
            {
              "internalType": "uint256",
              "name": "lastActivity",
              "type": "uint256"
            },
            {
              "internalType": "bool",
              "name": "isHighRisk",
              "type": "bool"
            },
            {
              "internalType": "uint8[]",
              "name": "categories",
              "type": "uint8[]"
            }
          ],
          "internalType": "struct TransactionMonitor.WalletProfile",
          "name": "",
          "type": "tuple"
        }
      ],
      "stateMutability": "view",
      "type": "function"
    },
    {
      "inputs": [
        {
          "internalType": "address",
          "name": "_wallet",
          "type": "address"
        }
      ],
      "name": "getWalletTransactions",
      "outputs": [
        {
          "internalType": "bytes32[]",
          "name": "",
          "type": "bytes32[]"
        }
      ],
      "stateMutability": "view",
      "type": "function"
    },
    {
      "inputs": [],
      "name": "owner",
      "outputs": [
        {
          "internalType": "address",
          "name": "",
          "type": "address"
        }
      ],
      "stateMutability": "view",
      "type": "function"
    },
    {
      "inputs": [],
      "name": "renounceOwnership",
      "outputs": [],
      "stateMutability": "nonpayable",
      "type": "function"
    },
    {
      "inputs": [
        {
          "internalType": "uint8",
          "name": "",
          "type": "uint8"
        }
      ],
      "name": "riskCategoryCounts",
      "outputs": [
        {
          "internalType": "uint256",
          "name": "",
          "type": "uint256"
        }
      ],
      "stateMutability": "view",
      "type": "function"
    },
    {
      "inputs": [],
      "name": "totalTransactionsAnalyzed",
      "outputs": [
        {
          "internalType": "uint256",
          "name": "",
          "type": "uint256"
        }
      ],
      "stateMutability": "view",
      "type": "function"
    },
    {
      "inputs": [
        {
          "internalType": "bytes32",
          "name": "",
          "type": "bytes32"
        }
      ],
      "name": "transactions",
      "outputs": [
        {
          "internalType": "address",
          "name": "from",
          "type": "address"
        },
        {
          "internalType": "address",
          "name": "to",
          "type": "address"
        },
        {
          "internalType": "uint256",
          "name": "value",
          "type": "uint256"
        },
        {
          "internalType": "uint256",
          "name": "timestamp",
          "type": "uint256"
        },
        {
          "internalType": "bytes32",
          "name": "txHash",
          "type": "bytes32"
        },
        {
          "internalType": "uint256",
          "name": "riskScore",
          "type": "uint256"
        },
        {
          "internalType": "bool",
          "name": "flagged",
          "type": "bool"
        },
        {
          "internalType": "uint8",
          "name": "category",
          "type": "uint8"
        }
      ],
      "stateMutability": "view",
      "type": "function"
    },
    {
      "inputs": [
        {
          "internalType": "address",
          "name": "newOwner",
          "type": "address"
        }
      ],
      "name": "transferOwnership",
      "outputs": [],
      "stateMutability": "nonpayable",
      "type": "function"
    },
    {
      "inputs": [
        {
          "internalType": "address",
          "name": "",
          "type": "address"
        }
      ],
      "name": "walletProfiles",
      "outputs": [
        {
          "internalType": "uint256",
          "name": "totalTransactions",
          "type": "uint256"
        },
        {
          "internalType": "uint256",
          "name": "totalVolume",
          "type": "uint256"
        },
        {
          "internalType": "uint256",
          "name": "riskScore",
          "type": "uint256"
        },
        {
          "internalType": "uint256",
          "name": "lastActivity",
          "type": "uint256"
        },
        {
          "internalType": "bool",
          "name": "isHighRisk",
          "type": "bool"
        }
      ],
      "stateMutability": "view",
      "type": "function"
    },
    {
      "inputs": [
        {
          "internalType": "address",
          "name": "",
          "type": "address"
        },
        {
          "internalType": "uint256",
          "name": "",
          "type": "uint256"
        }
      ],
      "name": "walletTransactions",
      "outputs": [
        {
          "internalType": "bytes32",
          "name": "",
          "type": "bytes32"
        }
      ],
      "stateMutability": "view",
      "type": "function"
    }
  ],
  "bytecode": "0x608060405234801561001057600080fd5b50338061003757604051631e4fbdf760e01b81526000600482015260240160405180910390fd5b6100408161004a565b506001805561009a565b600080546001600160a01b038381166001600160a01b0319831681178455604051919092169283917f8be0079c531659141344cd1fd0a4f28419497f9722a3daafe3b4186f6b6457e09190a35050565b6113ab806100a96000396000f3fe608060405234801561001057600080fd5b506004361061010b5760003560e01c8063715018a6116100a25780639dcbd55c116100715780639dcbd55c146104ee5780639ed990cf146104f65780639f8e6164146104fe578063bbcf9fee14610511578063f2fde38b1461051957600080fd5b8063715018a6146103a35780638da5cb5b146103ab5780638db99701146103c65780638e71fc031461048357600080fd5b80633c123e28116100de5780633c123e2814610188578063515a39b6146101a8578063642f2eaf146102eb5780636d5cdd9d1461039a57600080fd5b80630ae7278a14610110578063145045e6146101335780631a217b2a146101535780633b0877d214610173575b600080fd5b610120683635c9adc5dea0000081565b6040519081526020015b60405180910390f35b610146610141366004611086565b61052c565b60405161012a91906110a8565b6101206101613660046110ec565b60066020526000908152604090205481565b61018661018136600461110f565b610598565b005b61019b610196366004611086565b610992565b60405161012a9190611151565b6102796101b63660046111db565b6040805161010081018252600080825260208201819052918101829052606081018290526080810182905260a0810182905260c0810182905260e0810191909152506000908152600260208181526040928390208351610100808201865282546001600160a01b0390811683526001840154169382019390935292810154938301939093526003830154606083015260048301546080830152600583015460a083015260069092015460ff808216151560c084015292900490911660e082015290565b60405161012a919060006101008201905060018060a01b038084511683528060208501511660208401525060408301516040830152606083015160608301526080830151608083015260a083015160a083015260c0830151151560c083015260ff60e08401511660e083015292915050565b61034f6102f93660046111db565b600260208190526000918252604090912080546001820154928201546003830154600484015460058501546006909501546001600160a01b03948516969094169492939192909160ff8082169161010090041688565b604080516001600160a01b03998a168152989097166020890152958701949094526060860192909252608085015260a0840152151560c083015260ff1660e08201526101000161012a565b61012060055481565b610186610a9a565b6000546040516001600160a01b03909116815260200161012a565b60055460066020527f3e5fec24aa4dc4e5aee2e025e51e1392c72a2500577559fae9665c6d52bd6a31547f8819ef417987f8ae7a81f42cdfb18815282fe989326fbff903d13cf0e03ace29547f75f96ab15d697e93042dc45b5c896c4b27e89bb6eaf39475c5c371cb2513f7d25460046000527fc5069e24aaadb2addc3e52e868fcf3f4f8acf5a87e24300992fd4540c2a87eed54604080519586526020860194909452928401919091526060830152608082015260a00161012a565b6104c4610491366004611086565b60036020819052600091825260409091208054600182015460028301549383015460049093015491939092909160ff1685565b6040805195865260208601949094529284019190915260608301521515608082015260a00161012a565b610120604681565b610120600a81565b61012061050c3660046111f4565b610aae565b610120602881565b610186610527366004611086565b610adf565b6001600160a01b03811660009081526004602090815260409182902080548351818402810184019094528084526060939283018282801561058c57602002820191906000526020600020905b815481526020019060010190808311610578575b50505050509050919050565b6105a0610b1d565b836001600160a01b0381166105ee5760405162461bcd60e51b815260206004820152600f60248201526e496e76616c6964206164647265737360881b60448201526064015b60405180910390fd5b836001600160a01b0381166106375760405162461bcd60e51b815260206004820152600f60248201526e496e76616c6964206164647265737360881b60448201526064016105e5565b826106845760405162461bcd60e51b815260206004820152601860248201527f496e76616c6964207472616e73616374696f6e2068617368000000000000000060448201526064016105e5565b600083815260026020526040902060030154156106e35760405162461bcd60e51b815260206004820152601c60248201527f5472616e73616374696f6e20616c726561647920616e616c797a65640000000060448201526064016105e5565b60006106f0878787610b47565b905060006106fe8287610d92565b905060006046831015905060006040518061010001604052808b6001600160a01b031681526020018a6001600160a01b0316815260200189815260200142815260200188815260200185815260200183151581526020018460ff168152509050806002600089815260200190815260200160002060008201518160000160006101000a8154816001600160a01b0302191690836001600160a01b0316021790555060208201518160010160006101000a8154816001600160a01b0302191690836001600160a01b0316021790555060408201518160020155606082015181600301556080820151816004015560a0820151816005015560c08201518160060160006101000a81548160ff02191690831515021790555060e08201518160060160016101000a81548160ff021916908360ff160217905550905050600460008b6001600160a01b03166001600160a01b03168152602001908152602001600020879080600181540180825580915050600190039060005260206000200160009091909190915055600460008a6001600160a01b03166001600160a01b031681526020019081526020016000208790806001815401808255809150506001900390600052602060002001600090919091909150556108db8a8986610e0e565b6108e6898986610e0e565b600580549060006108f683611234565b909155505060ff8316600090815260066020526040812080549161091983611234565b90915550506040805185815260ff85166020820152428183015290516001600160a01b038c169189917f244dc321a9d098f5614f705593c078b0cab92e61a1187b85ab8b9356d94d856f9181900360600190a3811561097d5761097d8a8486610f15565b50505050505061098c60018055565b50505050565b6109cd6040518060c0016040528060008152602001600081526020016000815260200160008152602001600015158152602001606081525090565b6001600160a01b038216600090815260036020818152604092839020835160c08101855281548152600182015481840152600282015481860152928101546060840152600481015460ff16151560808401526005810180548551818502810185019096528086529394919360a0860193830182828015610a8a57602002820191906000526020600020906000905b825461010083900a900460ff16815260206001928301818104948501949093039092029101808411610a5b5790505b5050505050815250509050919050565b610aa2610fed565b610aac600061101a565b565b60046020528160005260406000208181548110610aca57600080fd5b90600052602060002001600091509150505481565b610ae7610fed565b6001600160a01b038116610b1157604051631e4fbdf760e01b8152600060048201526024016105e5565b610b1a8161101a565b50565b600260015403610b4057604051633ee5aeb560e01b815260040160405180910390fd5b6002600155565b600080683635c9adc5dea00000831115610b6957610b66601e8261124d565b90505b6001600160a01b0385166000908152600360208181526040808420815160c08101835281548152600182015481850152600282015481840152938101546060850152600481015460ff1615156080850152600581018054835181860281018601909452808452919360a08601939290830182828015610c2557602002820191906000526020600020906000905b825461010083900a900460ff16815260206001928301818104948501949093039092029101808411610bf65790505b505050919092525050506001600160a01b0386166000908152600360208181526040808420815160c08101835281548152600182015481850152600282015481840152938101546060850152600481015460ff161515608085015260058101805483518186028101860190945280845296975094959394909360a0860193830182828015610cf057602002820191906000526020600020906000905b825461010083900a900460ff16815260206001928301818104948501949093039092029101808411610cc15790505b5050505050815250509050816080015115610d1357610d1060198461124d565b92505b806080015115610d2b57610d28600f8461124d565b92505b8151600003610d4257610d3f600a8461124d565b92505b815115610d76576000826060015142610d5b9190611260565b9050603c811015610d7457610d7160148561124d565b93505b505b60648311610d845782610d87565b60645b979650505050505050565b6000605083101580610dad575069010f0cf064dd5920000082115b15610dba57506001610e08565b603c83101580610dd25750683635c9adc5dea0000082115b15610ddf57506002610e08565b602883101580610df7575068056bc75e2d6310000082115b15610e0457506003610e08565b5060045b92915050565b6001600160a01b0383166000908152600360205260408120805490918290610e3583611234565b919050555082816001016000828254610e4e919061124d565b90915550504260038201558054600103610e6e5760028101829055610ea5565b600a610e7b836003611273565b6002830154610e8b906007611273565b610e95919061124d565b610e9f919061128a565b60028201555b600281015460048201805460ff1916604683101517905581546001830154604080519384526020840192909252908201526001600160a01b038516907f37d44544d97812d6fcb20ab0a2dd3e35fcd5b39e72c65eaca25696a9b7fe2d0e906060015b60405180910390a250505050565b60608260ff16600103610f4257604051806060016040528060328152602001611344603291399050610fae565b8260ff16600203610f6d57604051806060016040528060308152602001611314603091399050610fae565b8260ff16600303610fae575060408051808201909152601d81527f4d656469756d207269736b202d206d6f6e69746f7220636c6f73656c7900000060208201525b836001600160a01b03167f1ae197866f199690c7fb2f0aa4f5377601a4a503f57a90ffc6ae552efe2f186e84848442604051610f0794939291906112ac565b6000546001600160a01b03163314610aac5760405163118cdaa760e01b81523360048201526024016105e5565b600080546001600160a01b038381166001600160a01b0319831681178455604051919092169283917f8be0079c531659141344cd1fd0a4f28419497f9722a3daafe3b4186f6b6457e09190a35050565b80356001600160a01b038116811461108157600080fd5b919050565b60006020828403121561109857600080fd5b6110a18261106a565b9392505050565b6020808252825182820181905260009190848201906040850190845b818110156110e0578351835292840192918401916001016110c4565b50909695505050505050565b6000602082840312156110fe57600080fd5b813560ff811681146110a157600080fd5b6000806000806080858703121561112557600080fd5b61112e8561106a565b935061113c6020860161106a565b93969395505050506040820135916060013590565b6000602080835260e0830184518285015281850151604085015260408501516060850152606085015160808501526080850151151560a085015260a085015160c080860152818151808452610100870191508483019350600092505b808310156111d057835160ff1682529284019260019290920191908401906111ad565b509695505050505050565b6000602082840312156111ed57600080fd5b5035919050565b6000806040838503121561120757600080fd5b6112108361106a565b946020939093013593505050565b634e487b7160e01b600052601160045260246000fd5b6000600182016112465761124661121e565b5060010190565b80820180821115610e0857610e0861121e565b81810381811115610e0857610e0861121e565b8082028115828204841417610e0857610e0861121e565b6000826112a757634e487b7160e01b600052601260045260246000fd5b500490565b60ff8516815260006020858184015260806040840152845180608085015260005b818110156112e95786810183015185820160a0015282016112cd565b50600060a0828601015260a0601f19601f830116850101925050508260608301529594505050505056fe48696768207269736b207472616e73616374696f6e202d20756e757375616c206163746976697479207061747465726e437269746963616c207269736b206465746563746564202d20706f74656e7469616c20736563757269747920746872656174a26469706673582212208172913cb5c7cceb596fa9f17797cfb3bb321a7c17bc7d31e28860659943ef2964736f6c63430008140033",
  "linkReferences": {},
  "deployedLinkReferences": {}
}